:020000040800F2
:100000000804002005010008290100082B01000850
:100010002D0100082F010008310100080000000038
:100020000000000000000000000000003301000894
:100030003501000800000000370100083901000800
:100040003B0100083B0100083B0100083B010008A0
:100050003B0100083B0100083B0100083B01000890
:100060003B0100083B0100083B0100083B01000880
:100070003B0100083B0100083B0100083B01000870
:100080003B0100083B0100083B0100083B01000860
:100090003B0100083B0100083B0100083B01000850
:1000A0003B0100083B0100083B0100083B01000840
:1000B0003B0100083B0100083B0100083B01000830
:1000C0003B0100083B0100083B0100083B01000820
:1000D0003B0100083B0100083B0100083B01000810
:1000E0003B0100083B0100083B010008DFF810D08D
:1000F00000F02EF8004800477D020008AFF30080B2
:10010000080400200D488047DFF83400016841F4FE
:10011000E0210160BFF34F8FDFF82800DFF82810DF
:1001200001600A4800477047FEE7FEE7FEE7FEE78A
:10013000FEE7FEE7FEE7FEE7FEE7FEE72701000831
:1001400024ED00E00CED00E00003FA05ED000008EE
:10015000064C074D06E0E06840F0010394E8070014
:1001600098471034AC42F6D3FFF7C4FF48030008A9
:100170006803000870B5194C832020600025656075
:10018000A56017486060012000F02EF86168084300
:10019000606014490D60086840F002000860206843
:1001A00040F48030206020688003FCD5206840F057
:1001B0008070206020688001FCD5606820F003001A
:1001C0006060606840F002006060606840F4800039
:1001D0006060086840F01000086070BD00100240C8
:1001E00000841D0000200240012804D0B0F5807F6B
:1001F00003DD012102E000202CE00021802801DD48
:10020000012200E000220A44402801DD012100E033
:1002100000210A44102801DD012100E000210A44E8
:10022000082801DD012100E000210A44042801DD45
:10023000012100E000210A44022801DD012100E043
:1002400000211144012801DD012000E000200844C4
:10025000C01D0001702800D10020704702E008C8CE
:10026000121F08C1002AFAD170477047002001E030
:1002700001C1121F002AFBD170470000FFF77AFF6F
:1002800005E00C242146024800F040F800BFF8E7E2
:1002900068030008284B1A68402A14D030F812402E
:1002A00002FB01F505F03F05244E36F9156006FB0B
:1002B00004F6234FD7F80080B044C7F8008002F15D
:1002C00001021A60E6E71E4F38684FF000041C6018
:1002D0003C607047184B1A68402A14D030F812401E
:1002E00002FB01F505F03F05164E36F9156006FBD9
:1002F00004F6134FD7F80080B044C7F8008002F12D
:1003000001021A60E6E70E4F3868704700B503B483
:10031000FFF7C0FF024603BC04B4FFF7DBFF04BCD9
:1003200003465DF804EB4FF00004C2FB0274C3FB0C
:10033000037420467047000000000020E803000816
:100340000400002068040008E80400080000002001
:10035000080000005C020008F0040008080000200B
:10036000000400006C020008900F7D08CF0002021C
:100370009B0AFC0F820BB30270008307310FFE0D46
:10038000650504007E044D0D900F7D08CF0002022C
:100390009B0AFC0F820BB30270008307310FFE0D26
:1003A000650504007E044D0D900F7D08CF0002020C
:1003B0009B0AFC0F820BB30270008307310FFE0D06
:1003C000650504007E044D0D900F7D08CF000202EC
:1003D0009B0AFC0F820BB30270008307310FFE0DE6
:1003E000650504007E044D0DFF7F627F8A7D7D7A66
:1003F0004276E3706E6AF262825A34511D47573C6E
:10040000FC302825F9188C0C000074F307E7D8DAC3
:1004100004CFA9C3E3B8CCAE7EA50E9D92951D8FE7
:10042000BE89838576829E8000809E8076828385C9
:10043000BE891D8F92950E9D7EA5CCAEE3B8A9C353
:1004400004CFD8DA07E774F300008C0CF9182825DC
:10045000FC30573C1D473451825AF2626E6AE37099
:1004600042767D7A8A7D627F00008C0CF9182825FF
:10047000FC30573C1D473451825AF2626E6AE37079
:1004800042767D7A8A7D627FFF7F627F8A7D7D7A78
:100490004276E3706E6AF262825A34511D47573CCD
:1004A000FC302825F9188C0C000074F307E7D8DA23
:1004B00004CFA9C3E3B8CCAE7EA50E9D92951D8F47
:1004C000BE89838576829E8000809E807682838529
:1004D000BE891D8F92950E9D7EA5CCAEE3B8A9C3B3
:1004E00004CFD8DA07E774F3000000000000000032
:04000005080000ED02
:00000001FF
